{
  "contractName": "Sellable",
  "abi": [
    {
      "constant": true,
      "inputs": [],
      "name": "askingPrice",
      "outputs": [
        {
          "name": "",
          "type": "uint256"
        }
      ],
      "payable": false,
      "stateMutability": "view",
      "type": "function"
    },
    {
      "constant": true,
      "inputs": [],
      "name": "selling",
      "outputs": [
        {
          "name": "",
          "type": "bool"
        }
      ],
      "payable": false,
      "stateMutability": "view",
      "type": "function"
    },
    {
      "constant": true,
      "inputs": [],
      "name": "sellingTo",
      "outputs": [
        {
          "name": "",
          "type": "address"
        }
      ],
      "payable": false,
      "stateMutability": "view",
      "type": "function"
    },
    {
      "constant": true,
      "inputs": [],
      "name": "owner",
      "outputs": [
        {
          "name": "",
          "type": "address"
        }
      ],
      "payable": false,
      "stateMutability": "view",
      "type": "function"
    },
    {
      "inputs": [],
      "payable": false,
      "stateMutability": "nonpayable",
      "type": "constructor"
    },
    {
      "anonymous": false,
      "inputs": [
        {
          "indexed": false,
          "name": "_saleDate",
          "type": "uint256"
        },
        {
          "indexed": false,
          "name": "_from",
          "type": "address"
        },
        {
          "indexed": false,
          "name": "_to",
          "type": "address"
        },
        {
          "indexed": false,
          "name": "_salePrice",
          "type": "uint256"
        }
      ],
      "name": "Transfer",
      "type": "event"
    },
    {
      "constant": false,
      "inputs": [
        {
          "name": "_price",
          "type": "uint256"
        },
        {
          "name": "_to",
          "type": "address"
        }
      ],
      "name": "initiateSale",
      "outputs": [],
      "payable": false,
      "stateMutability": "nonpayable",
      "type": "function"
    },
    {
      "constant": false,
      "inputs": [],
      "name": "cancelSale",
      "outputs": [],
      "payable": false,
      "stateMutability": "nonpayable",
      "type": "function"
    },
    {
      "constant": false,
      "inputs": [],
      "name": "completeSale",
      "outputs": [],
      "payable": true,
      "stateMutability": "payable",
      "type": "function"
    }
  ],
  "bytecode": "0x606060405260008060146101000a81548160ff021916908315150217905550341561002957600080fd5b336000806101000a81548173ffffffffffffffffffffffffffffffffffffffff021916908373ffffffffffffffffffffffffffffffffffffffff1602179055507ff2dbd98d79f00f7aff338b824931d607bfcc63d47307162470f25a055102d3b04260008060009054906101000a900473ffffffffffffffffffffffffffffffffffffffff166000604051808581526020018473ffffffffffffffffffffffffffffffffffffffff1673ffffffffffffffffffffffffffffffffffffffff1681526020018373ffffffffffffffffffffffffffffffffffffffff1673ffffffffffffffffffffffffffffffffffffffff16815260200182815260200194505050505060405180910390a1610771806101426000396000f300606060405260043610610083576000357c0100000000000000000000000000000000000000000000000000000000900463ffffffff16806309e949e8146100885780631a7ac726146100ca57806323aed228146100f35780634d461ed1146101205780634d8a96101461012a5780638da5cb5b1461017f578063e7e10490146101d4575b600080fd5b341561009357600080fd5b6100c8600480803590602001909190803573ffffffffffffffffffffffffffffffffffffffff169060200190919050506101e9565b005b34156100d557600080fd5b6100dd61035b565b6040518082815260200191505060405180910390f35b34156100fe57600080fd5b610106610361565b604051808215151515815260200191505060405180910390f35b610128610374565b005b341561013557600080fd5b61013d610614565b604051808273ffffffffffffffffffffffffffffffffffffffff1673ffffffffffffffffffffffffffffffffffffffff16815260200191505060405180910390f35b341561018a57600080fd5b61019261063a565b604051808273ffffffffffffffffffffffffffffffffffffffff1673ffffffffffffffffffffffffffffffffffffffff16815260200191505060405180910390f35b34156101df57600080fd5b6101e761065f565b005b6000809054906101000a900473ffffffffffffffffffffffffffffffffffffffff1673ffffffffffffffffffffffffffffffffffffffff163373ffffffffffffffffffffffffffffffffffffffff1614151561024457600080fd5b3073ffffffffffffffffffffffffffffffffffffffff168173ffffffffffffffffffffffffffffffffffffffff16141580156102cd57506000809054906101000a900473ffffffffffffffffffffffffffffffffffffffff1673ffffffffffffffffffffffffffffffffffffffff168173ffffffffffffffffffffffffffffffffffffffff1614155b15156102d857600080fd5b600060149054906101000a900460ff161515156102f457600080fd5b6001600060146101000a81548160ff02191690831515021790555080600160006101000a81548173ffffffffffffffffffffffffffffffffffffffff021916908373ffffffffffffffffffffffffffffffffffffffff160217905550816002819055505050565b60025481565b600060149054906101000a900460ff1681565b60008060008060149054906101000a900460ff16151561039357600080fd5b6000809054906101000a900473ffffffffffffffffffffffffffffffffffffffff1673ffffffffffffffffffffffffffffffffffffffff163373ffffffffffffffffffffffffffffffffffffffff16141515156103ef57600080fd5b600160009054906101000a900473ffffffffffffffffffffffffffffffffffffffff1673ffffffffffffffffffffffffffffffffffffffff163373ffffffffffffffffffffffffffffffffffffffff1614806104995750600073ffffffffffffffffffffffffffffffffffffffff16600160009054906101000a900473ffffffffffffffffffffffffffffffffffffffff1673ffffffffffffffffffffffffffffffffffffffff16145b15156104a457600080fd5b600254341415156104b457600080fd5b6000809054906101000a900473ffffffffffffffffffffffffffffffffffffffff1692503391506002549050816000806101000a81548173ffffffffffffffffffffffffffffffffffffffff021916908373ffffffffffffffffffffffffffffffffffffffff1602179055506105286106df565b8273ffffffffffffffffffffffffffffffffffffffff166108fc829081150290604051600060405180830381858888f19350505050151561056857600080fd5b7ff2dbd98d79f00f7aff338b824931d607bfcc63d47307162470f25a055102d3b042848484604051808581526020018473ffffffffffffffffffffffffffffffffffffffff1673ffffffffffffffffffffffffffffffffffffffff1681526020018373ffffffffffffffffffffffffffffffffffffffff1673ffffffffffffffffffffffffffffffffffffffff16815260200182815260200194505050505060405180910390a1505050565b600160009054906101000a900473ffffffffffffffffffffffffffffffffffffffff1681565b6000809054906101000a900473ffffffffffffffffffffffffffffffffffffffff1681565b6000809054906101000a900473ffffffffffffffffffffffffffffffffffffffff1673ffffffffffffffffffffffffffffffffffffffff163373ffffffffffffffffffffffffffffffffffffffff161415156106ba57600080fd5b600060149054906101000a900460ff1615156106d557600080fd5b6106dd6106df565b565b60008060146101000a81548160ff0219169083151502179055506000600160006101000a81548173ffffffffffffffffffffffffffffffffffffffff021916908373ffffffffffffffffffffffffffffffffffffffff16021790555060006002819055505600a165627a7a72305820e973dde21a99ea08a4200ba1d6598541544c9ddc18e21eec362ca12f98f27b5f0029",
  "source": "pragma solidity ^0.4.19;\n\n/**\n * @author Pablo Ruiz <me@pabloruiz.co>\n * @title Sellable\n */ \n\n/**\n * @dev Sellable contract should be inherited by any other contract that\n * wants to provide a mechanism for selling its ownership to another account\n */\ncontract Sellable {\n    \n    // The owner of the contract\n    address public owner;\n    \n    // Current sale status\n    bool public selling = false;\n    \n    // Who is the selected buyer, if any.\n    // Optional\n    address public sellingTo;\n    \n    // How much ether (wei) the seller has asked the buyer to send\n    uint public askingPrice;\n    \n    //\n    // Modifiers\n    // \n    \n    // Makes functions require the called to be the owner of the contract\n    modifier onlyOwner {\n        require(msg.sender == owner);\n        _;\n    }\n    \n    // Add to functions that the owner wants to prevent being called while the\n    // contract is for sale.\n    modifier ifNotLocked {\n        require(!selling);\n        _;\n    }\n    \n    event Transfer(uint _saleDate, address _from, address _to, uint _salePrice);\n\n    function Sellable() public{\n        owner = msg.sender;\n        Transfer(now,address(0),owner,0);\n    }\n    \n    /**\n     * @dev initiateSale is called by the owner of the contract to start\n     * the sale process.\n     * @param _price is the asking price for the sale\n     * @param _to (OPTIONAL) is the address of the person that the owner\n     * wants to sell the contract to. If set to 0x0, anyone can buy it.\n     */\n    function initiateSale(uint _price, address _to) onlyOwner public{\n        require(_to != address(this) && _to != owner);\n        require(!selling);\n        \n        selling = true;\n        \n        // Set the target buyer, if specified.\n        sellingTo = _to;\n        \n        askingPrice = _price;\n    }\n    \n    /**\n     * @dev cancelSale allows the owner to cancel the sale before someone buys\n     * the contract.\n     */\n    function cancelSale() onlyOwner public{\n        require(selling);\n        \n        // Reset sale variables\n        resetSale();\n    }\n    \n    /** \n     * @dev completeSale is called buy the specified buyer (or anyone if sellingTo)\n     * was not set, to make the purchase.\n     * Value sent must match the asking price.\n     */\n    function completeSale() public payable{\n        require(selling);\n        require(msg.sender != owner);\n        require(msg.sender == sellingTo || sellingTo == address(0));\n        require(msg.value == askingPrice);\n        \n        // Swap ownership\n        address prevOwner = owner;\n        address newOwner = msg.sender;\n        uint salePrice = askingPrice;\n        \n        owner = newOwner;\n        \n        // Transaction cleanup\n        resetSale();\n        \n        prevOwner.transfer(salePrice);\n        \n        Transfer(now,prevOwner,newOwner,salePrice);\n    }\n    \n    //\n    // Internal functions\n    //\n    \n    /**\n     * @dev resets the variables related to a sale process\n     */\n    function resetSale() internal{\n        selling = false;\n        sellingTo = address(0);\n        askingPrice = 0;\n    }\n}",
  "sourcePath": "/Users/piotrkosinski/Projects/suitcase/contracts/Sellable.sol",
  "compiler": {
    "name": "solc",
    "version": "0.4.19+commit.c4cbbb05.Emscripten.clang"
  },
  "schemaVersion": "2.0.0",
  "updatedAt": "2018-03-27T20:57:12.854Z"
}