{
  "contractName": "Suitcase",
  "abi": [
    {
      "anonymous": false,
      "inputs": [
        {
          "indexed": false,
          "internalType": "uint256",
          "name": "_saleDate",
          "type": "uint256"
        },
        {
          "indexed": false,
          "internalType": "address",
          "name": "_from",
          "type": "address"
        },
        {
          "indexed": false,
          "internalType": "address",
          "name": "_to",
          "type": "address"
        },
        {
          "indexed": false,
          "internalType": "uint256",
          "name": "_salePrice",
          "type": "uint256"
        }
      ],
      "name": "Transfer",
      "type": "event"
    },
    {
      "inputs": [],
      "name": "askingPrice",
      "outputs": [
        {
          "internalType": "uint256",
          "name": "",
          "type": "uint256"
        }
      ],
      "stateMutability": "view",
      "type": "function"
    },
    {
      "inputs": [],
      "name": "cancelSale",
      "outputs": [],
      "stateMutability": "nonpayable",
      "type": "function"
    },
    {
      "inputs": [],
      "name": "completeSale",
      "outputs": [],
      "stateMutability": "payable",
      "type": "function"
    },
    {
      "inputs": [
        {
          "internalType": "uint256",
          "name": "_price",
          "type": "uint256"
        },
        {
          "internalType": "address",
          "name": "_to",
          "type": "address"
        }
      ],
      "name": "initiateSale",
      "outputs": [],
      "stateMutability": "nonpayable",
      "type": "function"
    },
    {
      "inputs": [],
      "name": "owner",
      "outputs": [
        {
          "internalType": "address",
          "name": "",
          "type": "address"
        }
      ],
      "stateMutability": "view",
      "type": "function"
    },
    {
      "inputs": [],
      "name": "selling",
      "outputs": [
        {
          "internalType": "bool",
          "name": "",
          "type": "bool"
        }
      ],
      "stateMutability": "view",
      "type": "function"
    },
    {
      "inputs": [],
      "name": "sellingTo",
      "outputs": [
        {
          "internalType": "address",
          "name": "",
          "type": "address"
        }
      ],
      "stateMutability": "view",
      "type": "function"
    },
    {
      "inputs": [
        {
          "internalType": "contract ERC20",
          "name": "asset",
          "type": "address"
        },
        {
          "internalType": "address",
          "name": "to",
          "type": "address"
        },
        {
          "internalType": "uint256",
          "name": "value",
          "type": "uint256"
        }
      ],
      "name": "transfer",
      "outputs": [
        {
          "internalType": "bool",
          "name": "",
          "type": "bool"
        }
      ],
      "stateMutability": "nonpayable",
      "type": "function"
    },
    {
      "inputs": [
        {
          "internalType": "address",
          "name": "to",
          "type": "address"
        },
        {
          "internalType": "bytes",
          "name": "data",
          "type": "bytes"
        }
      ],
      "name": "proxy",
      "outputs": [
        {
          "internalType": "bool",
          "name": "",
          "type": "bool"
        }
      ],
      "stateMutability": "payable",
      "type": "function"
    }
  ],
  "bytecode": "0x60806040526000805460ff60a01b1916905534801561001d57600080fd5b50600080546001600160a01b031916331780825560408051428152602081018490526001600160a01b039290921682820152606082019290925290517ff2dbd98d79f00f7aff338b824931d607bfcc63d47307162470f25a055102d3b09181900360800190a16108c5806100926000396000f3fe6080604052600436106100965760003560e01c80634d8a961011610069578063be6d055a1161004e578063be6d055a1461018e578063beabacc814610251578063e7e10490146102a157610096565b80634d8a96101461013b5780638da5cb5b1461017957610096565b806309e949e81461009b5780631a7ac726146100e357806323aed2281461010a5780634d461ed114610133575b600080fd5b3480156100a757600080fd5b506100e1600480360360408110156100be57600080fd5b508035906020013573ffffffffffffffffffffffffffffffffffffffff166102b6565b005b3480156100ef57600080fd5b506100f86103d6565b60408051918252519081900360200190f35b34801561011657600080fd5b5061011f6103dc565b604080519115158252519081900360200190f35b6100e16103fd565b34801561014757600080fd5b50610150610594565b6040805173ffffffffffffffffffffffffffffffffffffffff9092168252519081900360200190f35b34801561018557600080fd5b506101506105b0565b61011f600480360360408110156101a457600080fd5b73ffffffffffffffffffffffffffffffffffffffff82351691908101906040810160208201356401000000008111156101dc57600080fd5b8201836020820111156101ee57600080fd5b8035906020019184600183028401116401000000008311171561021057600080fd5b91908080601f0160208091040260200160405190810160405280939291908181526020018383808284376000920191909152509295506105cc945050505050565b34801561025d57600080fd5b5061011f6004803603606081101561027457600080fd5b5073ffffffffffffffffffffffffffffffffffffffff8135811691602081013590911690604001356106f3565b3480156102ad57600080fd5b506100e16107e5565b60005473ffffffffffffffffffffffffffffffffffffffff1633146102da57600080fd5b60005474010000000000000000000000000000000000000000900460ff161561030257600080fd5b73ffffffffffffffffffffffffffffffffffffffff81163014801590610343575060005473ffffffffffffffffffffffffffffffffffffffff828116911614155b61034c57600080fd5b600080547fffffffffffffffffffffff00ffffffffffffffffffffffffffffffffffffffff16740100000000000000000000000000000000000000001790556001805473ffffffffffffffffffffffffffffffffffffffff9092167fffffffffffffffffffffffff0000000000000000000000000000000000000000909216919091179055600255565b60025481565b60005474010000000000000000000000000000000000000000900460ff1681565b60005474010000000000000000000000000000000000000000900460ff1661042457600080fd5b60005473ffffffffffffffffffffffffffffffffffffffff1633141561044957600080fd5b60015473ffffffffffffffffffffffffffffffffffffffff16331480610485575060015473ffffffffffffffffffffffffffffffffffffffff16155b61048e57600080fd5b600254341461049c57600080fd5b60008054600254337fffffffffffffffffffffffff00000000000000000000000000000000000000008316811790935573ffffffffffffffffffffffffffffffffffffffff90911691906104ee61083a565b60405173ffffffffffffffffffffffffffffffffffffffff84169082156108fc029083906000818181858888f19350505050158015610531573d6000803e3d6000fd5b506040805142815273ffffffffffffffffffffffffffffffffffffffff80861660208301528416818301526060810183905290517ff2dbd98d79f00f7aff338b824931d607bfcc63d47307162470f25a055102d3b09181900360800190a1505050565b60015473ffffffffffffffffffffffffffffffffffffffff1681565b60005473ffffffffffffffffffffffffffffffffffffffff1681565b6000805473ffffffffffffffffffffffffffffffffffffffff1633146105f157600080fd5b60005474010000000000000000000000000000000000000000900460ff161561061957600080fd5b60008373ffffffffffffffffffffffffffffffffffffffff1634846040518082805190602001908083835b6020831061068157805182527fffffffffffffffffffffffffffffffffffffffffffffffffffffffffffffffe09092019160209182019101610644565b6001836020036101000a03801982511681845116808217855250505050505090500191505060006040518083038185875af1925050503d80600081146106e3576040519150601f19603f3d011682016040523d82523d6000602084013e6106e8565b606091505b509095945050505050565b6000805473ffffffffffffffffffffffffffffffffffffffff16331461071857600080fd5b60005474010000000000000000000000000000000000000000900460ff161561074057600080fd5b8373ffffffffffffffffffffffffffffffffffffffff1663a9059cbb84846040518363ffffffff1660e01b8152600401808373ffffffffffffffffffffffffffffffffffffffff16815260200182815260200192505050602060405180830381600087803b1580156107b157600080fd5b505af11580156107c5573d6000803e3d6000fd5b505050506040513d60208110156107db57600080fd5b5051949350505050565b60005473ffffffffffffffffffffffffffffffffffffffff16331461080957600080fd5b60005474010000000000000000000000000000000000000000900460ff1661083057600080fd5b61083861083a565b565b600080547fffffffffffffffffffffff00ffffffffffffffffffffffffffffffffffffffff168155600180547fffffffffffffffffffffffff000000000000000000000000000000000000000016905560025556fea264697066735822122052cfbbfb0ba17fc6412194d7b7d687feb2f22f063967553f94d573a7af66da4064736f6c63430007060033",
  "immutableReferences": {},
  "source": "pragma solidity 0.7.6;\n\nimport \"@openzeppelin/contracts/token/ERC20/ERC20.sol\";\nimport \"./Sellable.sol\";\n\ncontract Suitcase is Sellable {\n  function transfer(ERC20 asset, address to, uint256 value) public onlyOwner ifNotLocked returns (bool) {\n    return asset.transfer(to, value);\n  }\n\n  function proxy(address to, bytes memory data) public payable onlyOwner ifNotLocked returns (bool) {\n    (bool success, ) = to.call{ value: msg.value }(data);\n    return success;\n  }\n}\n",
  "sourcePath": "/mnt/db271920-83fc-4f9d-9f01-a10b6b806220/Coding/1337/DS/chronologic/suitcase/contracts/Suitcase.sol",
  "compiler": {
    "name": "solc",
    "version": "0.7.6+commit.7338295f.Emscripten.clang"
  },
  "schemaVersion": "3.3.4",
  "updatedAt": "2021-02-17T15:06:30.978Z",
  "devdoc": {
    "kind": "dev",
    "methods": {
      "cancelSale()": {
        "details": "cancelSale allows the owner to cancel the sale before someone buys the contract."
      },
      "completeSale()": {
        "details": "completeSale is called buy the specified buyer (or anyone if sellingTo was not set) to make the purchase. Value sent must match the asking price."
      },
      "initiateSale(uint256,address)": {
        "details": "initiateSale is called by the owner of the contract to start the sale process.",
        "params": {
          "_price": "is the asking price for the sale",
          "_to": "(OPTIONAL) is the address of the person that the owner wants to sell the contract to. If set to 0x0, anyone can buy it."
        }
      }
    },
    "version": 1
  },
  "userdoc": {
    "kind": "user",
    "methods": {},
    "version": 1
  }
}